{
  "contractName": "PlayerBook",
  "abi": [
    {
      "constant": true,
      "inputs": [
        {
          "name": "",
          "type": "address"
        }
      ],
      "name": "pIDxAddr_",
      "outputs": [
        {
          "name": "",
          "type": "uint256"
        }
      ],
      "payable": false,
      "stateMutability": "view",
      "type": "function"
    },
    {
      "constant": true,
      "inputs": [],
      "name": "registrationFee_",
      "outputs": [
        {
          "name": "",
          "type": "uint256"
        }
      ],
      "payable": false,
      "stateMutability": "view",
      "type": "function"
    },
    {
      "constant": true,
      "inputs": [
        {
          "name": "",
          "type": "uint256"
        },
        {
          "name": "",
          "type": "bytes32"
        }
      ],
      "name": "plyrNames_",
      "outputs": [
        {
          "name": "",
          "type": "bool"
        }
      ],
      "payable": false,
      "stateMutability": "view",
      "type": "function"
    },
    {
      "constant": true,
      "inputs": [
        {
          "name": "",
          "type": "address"
        }
      ],
      "name": "gameNames_",
      "outputs": [
        {
          "name": "",
          "type": "bytes32"
        }
      ],
      "payable": false,
      "stateMutability": "view",
      "type": "function"
    },
    {
      "constant": true,
      "inputs": [
        {
          "name": "",
          "type": "bytes32"
        }
      ],
      "name": "pIDxName_",
      "outputs": [
        {
          "name": "",
          "type": "uint256"
        }
      ],
      "payable": false,
      "stateMutability": "view",
      "type": "function"
    },
    {
      "constant": true,
      "inputs": [],
      "name": "pID_",
      "outputs": [
        {
          "name": "",
          "type": "uint256"
        }
      ],
      "payable": false,
      "stateMutability": "view",
      "type": "function"
    },
    {
      "constant": true,
      "inputs": [
        {
          "name": "",
          "type": "uint256"
        },
        {
          "name": "",
          "type": "uint256"
        }
      ],
      "name": "plyrNameList_",
      "outputs": [
        {
          "name": "",
          "type": "bytes32"
        }
      ],
      "payable": false,
      "stateMutability": "view",
      "type": "function"
    },
    {
      "constant": true,
      "inputs": [],
      "name": "gID_",
      "outputs": [
        {
          "name": "",
          "type": "uint256"
        }
      ],
      "payable": false,
      "stateMutability": "view",
      "type": "function"
    },
    {
      "constant": true,
      "inputs": [
        {
          "name": "",
          "type": "uint256"
        }
      ],
      "name": "games_",
      "outputs": [
        {
          "name": "",
          "type": "address"
        }
      ],
      "payable": false,
      "stateMutability": "view",
      "type": "function"
    },
    {
      "constant": true,
      "inputs": [
        {
          "name": "",
          "type": "address"
        }
      ],
      "name": "gameIDs_",
      "outputs": [
        {
          "name": "",
          "type": "uint256"
        }
      ],
      "payable": false,
      "stateMutability": "view",
      "type": "function"
    },
    {
      "constant": true,
      "inputs": [
        {
          "name": "",
          "type": "uint256"
        }
      ],
      "name": "plyr_",
      "outputs": [
        {
          "name": "addr",
          "type": "address"
        },
        {
          "name": "name",
          "type": "bytes32"
        },
        {
          "name": "laff",
          "type": "uint256"
        },
        {
          "name": "names",
          "type": "uint256"
        }
      ],
      "payable": false,
      "stateMutability": "view",
      "type": "function"
    },
    {
      "inputs": [],
      "payable": false,
      "stateMutability": "nonpayable",
      "type": "constructor"
    },
    {
      "anonymous": false,
      "inputs": [
        {
          "indexed": true,
          "name": "playerID",
          "type": "uint256"
        },
        {
          "indexed": true,
          "name": "playerAddress",
          "type": "address"
        },
        {
          "indexed": true,
          "name": "playerName",
          "type": "bytes32"
        },
        {
          "indexed": false,
          "name": "isNewPlayer",
          "type": "bool"
        },
        {
          "indexed": false,
          "name": "affiliateID",
          "type": "uint256"
        },
        {
          "indexed": false,
          "name": "affiliateAddress",
          "type": "address"
        },
        {
          "indexed": false,
          "name": "affiliateName",
          "type": "bytes32"
        },
        {
          "indexed": false,
          "name": "amountPaid",
          "type": "uint256"
        },
        {
          "indexed": false,
          "name": "timeStamp",
          "type": "uint256"
        }
      ],
      "name": "onNewName",
      "type": "event"
    },
    {
      "constant": true,
      "inputs": [
        {
          "name": "_nameStr",
          "type": "string"
        }
      ],
      "name": "checkIfNameValid",
      "outputs": [
        {
          "name": "",
          "type": "bool"
        }
      ],
      "payable": false,
      "stateMutability": "view",
      "type": "function"
    },
    {
      "constant": false,
      "inputs": [
        {
          "name": "_nameString",
          "type": "string"
        },
        {
          "name": "_affCode",
          "type": "uint256"
        },
        {
          "name": "_all",
          "type": "bool"
        }
      ],
      "name": "registerNameXID",
      "outputs": [],
      "payable": true,
      "stateMutability": "payable",
      "type": "function"
    },
    {
      "constant": false,
      "inputs": [
        {
          "name": "_nameString",
          "type": "string"
        },
        {
          "name": "_affCode",
          "type": "address"
        },
        {
          "name": "_all",
          "type": "bool"
        }
      ],
      "name": "registerNameXaddr",
      "outputs": [],
      "payable": true,
      "stateMutability": "payable",
      "type": "function"
    },
    {
      "constant": false,
      "inputs": [
        {
          "name": "_nameString",
          "type": "string"
        },
        {
          "name": "_affCode",
          "type": "bytes32"
        },
        {
          "name": "_all",
          "type": "bool"
        }
      ],
      "name": "registerNameXname",
      "outputs": [],
      "payable": true,
      "stateMutability": "payable",
      "type": "function"
    },
    {
      "constant": false,
      "inputs": [
        {
          "name": "_gameID",
          "type": "uint256"
        }
      ],
      "name": "addMeToGame",
      "outputs": [],
      "payable": false,
      "stateMutability": "nonpayable",
      "type": "function"
    },
    {
      "constant": false,
      "inputs": [],
      "name": "addMeToAllGames",
      "outputs": [],
      "payable": false,
      "stateMutability": "nonpayable",
      "type": "function"
    },
    {
      "constant": false,
      "inputs": [
        {
          "name": "_nameString",
          "type": "string"
        }
      ],
      "name": "useMyOldName",
      "outputs": [],
      "payable": false,
      "stateMutability": "nonpayable",
      "type": "function"
    },
    {
      "constant": false,
      "inputs": [
        {
          "name": "_addr",
          "type": "address"
        }
      ],
      "name": "getPlayerID",
      "outputs": [
        {
          "name": "",
          "type": "uint256"
        }
      ],
      "payable": false,
      "stateMutability": "nonpayable",
      "type": "function"
    },
    {
      "constant": true,
      "inputs": [
        {
          "name": "_pID",
          "type": "uint256"
        }
      ],
      "name": "getPlayerName",
      "outputs": [
        {
          "name": "",
          "type": "bytes32"
        }
      ],
      "payable": false,
      "stateMutability": "view",
      "type": "function"
    },
    {
      "constant": true,
      "inputs": [
        {
          "name": "_pID",
          "type": "uint256"
        }
      ],
      "name": "getPlayerLAff",
      "outputs": [
        {
          "name": "",
          "type": "uint256"
        }
      ],
      "payable": false,
      "stateMutability": "view",
      "type": "function"
    },
    {
      "constant": true,
      "inputs": [
        {
          "name": "_pID",
          "type": "uint256"
        }
      ],
      "name": "getPlayerAddr",
      "outputs": [
        {
          "name": "",
          "type": "address"
        }
      ],
      "payable": false,
      "stateMutability": "view",
      "type": "function"
    },
    {
      "constant": true,
      "inputs": [],
      "name": "getNameFee",
      "outputs": [
        {
          "name": "",
          "type": "uint256"
        }
      ],
      "payable": false,
      "stateMutability": "view",
      "type": "function"
    },
    {
      "constant": false,
      "inputs": [
        {
          "name": "_addr",
          "type": "address"
        },
        {
          "name": "_name",
          "type": "bytes32"
        },
        {
          "name": "_affCode",
          "type": "uint256"
        },
        {
          "name": "_all",
          "type": "bool"
        }
      ],
      "name": "registerNameXIDFromDapp",
      "outputs": [
        {
          "name": "",
          "type": "bool"
        },
        {
          "name": "",
          "type": "uint256"
        }
      ],
      "payable": true,
      "stateMutability": "payable",
      "type": "function"
    },
    {
      "constant": false,
      "inputs": [
        {
          "name": "_addr",
          "type": "address"
        },
        {
          "name": "_name",
          "type": "bytes32"
        },
        {
          "name": "_affCode",
          "type": "address"
        },
        {
          "name": "_all",
          "type": "bool"
        }
      ],
      "name": "registerNameXaddrFromDapp",
      "outputs": [
        {
          "name": "",
          "type": "bool"
        },
        {
          "name": "",
          "type": "uint256"
        }
      ],
      "payable": true,
      "stateMutability": "payable",
      "type": "function"
    },
    {
      "constant": false,
      "inputs": [
        {
          "name": "_addr",
          "type": "address"
        },
        {
          "name": "_name",
          "type": "bytes32"
        },
        {
          "name": "_affCode",
          "type": "bytes32"
        },
        {
          "name": "_all",
          "type": "bool"
        }
      ],
      "name": "registerNameXnameFromDapp",
      "outputs": [
        {
          "name": "",
          "type": "bool"
        },
        {
          "name": "",
          "type": "uint256"
        }
      ],
      "payable": true,
      "stateMutability": "payable",
      "type": "function"
    },
    {
      "constant": false,
      "inputs": [
        {
          "name": "_gameAddress",
          "type": "address"
        },
        {
          "name": "_gameNameStr",
          "type": "string"
        }
      ],
      "name": "addGame",
      "outputs": [],
      "payable": false,
      "stateMutability": "nonpayable",
      "type": "function"
    },
    {
      "constant": false,
      "inputs": [
        {
          "name": "_fee",
          "type": "uint256"
        }
      ],
      "name": "setRegistrationFee",
      "outputs": [],
      "payable": false,
      "stateMutability": "nonpayable",
      "type": "function"
    }
  ],
  "bytecode": "0x608060405260008054600160a060020a03191633179055662386f26fc1000060015534801561002d57600080fd5b507f92e85d02570a8092d09a6e3a57665bc3815a2699a4074001bf1ccabf660f5a368054600160a060020a0319908116738e0d985f3ec1857bec39b76aaabdea6b31b67d53179091557f6a7573746f0000000000000000000000000000000000000000000000000000007f92e85d02570a8092d09a6e3a57665bc3815a2699a4074001bf1ccabf660f5a3781905560017f92e85d02570a8092d09a6e3a57665bc3815a2699a4074001bf1ccabf660f5a398190557f7945588bb2738ba9b8b221747234545c54f0e4c7ac3784d43094467f615b51678190557f762d6d82485f8ba728a5500d760dfdb7168471b2894400e1df49c93b495b4f888190557f16d8e9bd91f15d01a7566839f41a231f80f11c69224644ab0930ac26636557c7805460ff1990811683179091557f6bd9ce7c7c44b510ee825857e9b7d0dbc77ffc0dcbb487d9763a092e420c9a18929092557f6cde3cea4b3a3fb2488b2808bae7556f4a405e50f65e1794383bc026131b13c380548416738b4da1827932d71759687f925d17f81fc94e3a9d1790557f6d616e74736f00000000000000000000000000000000000000000000000000007f6cde3cea4b3a3fb2488b2808bae7556f4a405e50f65e1794383bc026131b13c48190557f6cde3cea4b3a3fb2488b2808bae7556f4a405e50f65e1794383bc026131b13c682905560027fb879adb6fe669e16d6aeb7a19aad65badbb92fd7b2b1f1f5ba729495b236748f8190557f6580451f8c1533c98975a12cfa65f28f7e3151f60699355b6b7674c57d81c21a557fe8fcf9acd692d87e1f7051e6b260929b78ae5d958b2e3fdea5b77a29f79fd95080548416831790557f5ec873723cdc64ab6619ea2fcbca33beef9a820510f97aa9ecb9e3ff0f638853557fc575c31fea594a6eb97c8e9d3f9caee4c16218c6ef37e923234c0fe9014a61e780548416737ac74fcc1a71b106f12c55ee8f802c9f672ce40c1790557f73756d70756e6b000000000000000000000000000000000000000000000000007fc575c31fea594a6eb97c8e9d3f9caee4c16218c6ef37e923234c0fe9014a61e88190557fc575c31fea594a6eb97c8e9d3f9caee4c16218c6ef37e923234c0fe9014a61ea82905560037f1c974634a525cc45258a231bf2a0c4c330809704175b5c917fc36ea991564a328190557f26bda8dc9fb5cccb812d17f150de8a6180eab480db7f39d0f264318349138645557f41d6a92976668d608e8cb8d112aced96732d01f6081942e52ea08ab8277f341880548416831790557f960add1d2a4af75b2cd16bfb54d92ee5d4c29427a1bf605fa9b667906b27d701557f8dc18c4ccfd75f5c815b63770fa542fd953e8fef7e0e44bbdd4913470ce7e9cb80549093167318e90fc6f70344f53ebd4f6070bf6aa23e2d748c179092557f696e76656e746f720000000000000000000000000000000000000000000000007f8dc18c4ccfd75f5c815b63770fa542fd953e8fef7e0e44bbdd4913470ce7e9cc8190557f8dc18c4ccfd75f5c815b63770fa542fd953e8fef7e0e44bbdd4913470ce7e9ce83905560047f0997b017d9262bcd076672939714e360066ae7d695d955ecc1821a61f36f7b818190557f3b067eeadfc88d599c85e61eaac8075a0e270e6830b20fa50e1f309ebbfe9c468190557fa766fb1d802397cd20bbb5606a44354e813d310108e6e51ed92a4ae966722d53805490931684179092556000929092527f12d0c11577e2f0950f57c455c117796550b79f444811db8ba2f69c57b646c7846020527f2c4ff72984b96d6e24887abcd47b1c2fb2b1bd600b7f7d037d1a2ac35568baab919091556006556123af8061056c6000396000f3006080604052600436106101505763ffffffff60e060020a6000350416630c6940ea811461015557806310f01eba1461016c578063180603eb1461019f5780632614195f146101b45780632660316e146101c957806327249e61146101f85780632e19ebdc146102195780633ddd4698146102315780633fda926e1461028d5780634b227176146102f45780634d0d35ff14610309578063685ffd831461033d5780636c52660d14610390578063745ea0c1146103e957806381c5b2061461042357806382e37b2c1461043b578063921dec2114610453578063a448ed4b146104a6578063aa4d490b146104c1578063b9291296146104e4578063b9eca0c81461053d578063c0942dfd14610552578063c320c72714610571578063d524127914610589578063dbbcaa97146105a1578063de7874f3146105c2578063e3c08adf1461060a578063e56556a914610622575b600080fd5b34801561016157600080fd5b5061016a610643565b005b34801561017857600080fd5b5061018d600160a060020a036004351661088f565b60408051918252519081900360200190f35b3480156101ab57600080fd5b5061018d6108a1565b3480156101c057600080fd5b5061018d6108a7565b3480156101d557600080fd5b506101e46004356024356108ad565b604080519115158252519081900360200190f35b34801561020457600080fd5b5061018d600160a060020a03600435166108cd565b34801561022557600080fd5b5061018d6004356108df565b6040805160206004803580820135601f810184900484028501840190955284845261016a94369492936024939284019190819084018382808284375094975050600160a060020a038535169550505050506020013515156108f1565b34801561029957600080fd5b5060408051602060046024803582810135601f810185900485028601850190965285855261016a958335600160a060020a0316953695604494919390910191908190840183828082843750949750610a599650505050505050565b34801561030057600080fd5b5061018d610e8f565b34801561031557600080fd5b50610321600435610e95565b60408051600160a060020a039092168252519081900360200190f35b6040805160206004803580820135601f810184900484028501840190955284845261016a943694929360249392840191908190840183828082843750949750508435955050505050602001351515610eb3565b34801561039c57600080fd5b506040805160206004803580820135601f81018490048402850184019095528484526101e4943694929360249392840191908190840183828082843750949750610fef9650505050505050565b610408600160a060020a03600435166024356044356064351515611027565b60408051921515835260208301919091528051918290030190f35b34801561042f57600080fd5b5061016a600435611139565b34801561044757600080fd5b5061018d6004356113e4565b6040805160206004803580820135601f810184900484028501840190955284845261016a9436949293602493928401919081908401838280828437509497505084359550505050506020013515156113f9565b3480156104b257600080fd5b5061018d600435602435611539565b610408600160a060020a0360043581169060243590604435166064351515611556565b3480156104f057600080fd5b506040805160206004803580820135601f810184900484028501840190955284845261016a9436949293602493928401919081908401838280828437509497506116779650505050505050565b34801561054957600080fd5b5061018d611769565b610408600160a060020a0360043516602435604435606435151561176f565b34801561057d57600080fd5b5061016a600435611879565b34801561059557600080fd5b5061032160043561187e565b3480156105ad57600080fd5b5061018d600160a060020a0360043516611899565b3480156105ce57600080fd5b506105da6004356118ab565b60408051600160a060020a0390951685526020850193909352838301919091526060830152519081900360800190f35b34801561061657600080fd5b5061018d6004356118dc565b34801561062e57600080fd5b5061018d600160a060020a03600435166118f1565b600080808080808033803b8015610692576040805160e560020a62461bcd0281526020600482015260116024820152600080516020612364833981519152604482015290519081900360640190fd5b336000818152600760205260409020549099509750871515610718576040805160e560020a62461bcd02815260206004820152602e60248201527f6865792074686572652062756464792c20796f7520646f6e74206576656e20686044820152609260020a6d185d9948185b881858d8dbdd5b9d02606482015290519081900360840190fd5b6000888152600960205260409020600281015460038201546001928301549199509750955093505b60055484116108845760008481526002602052604080822054815160e060020a6349cc635d028152600481018c9052600160a060020a038d81166024830152604482018a9052606482018c9052925192909116926349cc635d9260848084019382900301818387803b1580156107b557600080fd5b505af11580156107c9573d6000803e3d6000fd5b50505050600186111561087957600192505b858311610879576000848152600260209081526040808320548b8452600b835281842087855290925280832054815160e160020a6347b8a075028152600481018d905260248101919091529051600160a060020a0390921692638f7140ea9260448084019382900301818387803b15801561085557600080fd5b505af1158015610869573d6000803e3d6000fd5b5050600190940193506107db9050565b600190930192610740565b505050505050505050565b60076020526000908152604090205481565b60015481565b60015490565b600a60209081526000928352604080842090915290825290205460ff1681565b60036020526000908152604090205481565b60086020526000908152604090205481565b60008080808033803b801561093e576040805160e560020a62461bcd0281526020600482015260116024820152600080516020612364833981519152604482015290519081900360640190fd5b600154341015610998576040805160e560020a62461bcd0281526020600482015260266024820152600080516020612344833981519152604482015260d060020a656d652066656502606482015290519081900360840190fd5b6109a18a611932565b96503395506109af8661204d565b600160a060020a038088166000908152600760205260409020549196509094508916158015906109f1575085600160a060020a031689600160a060020a031614155b15610a3f57600160a060020a0389166000908152600760209081526040808320548784526009909252909120600201549093508314610a3f5760008481526009602052604090206002018390555b610a4d8487858a898d6120c2565b50505050505050505050565b600160a060020a03821660009081526004602052604081205415610aed576040805160e560020a62461bcd02815260206004820152602860248201527f646572702c20746861742067616d657320616c7265616479206265656e20726560448201527f6769737465726564000000000000000000000000000000000000000000000000606482015290519081900360840190fd5b600580546001019055610aff82611932565b60058054600160a060020a038087166000818152600460208181526040808420969096556003815285832088905586548352600281528583208054600160a060020a0319169094179093559454815283812054600180835260099093527f92e85d02570a8092d09a6e3a57665bc3815a2699a4074001bf1ccabf660f5a36547f92e85d02570a8092d09a6e3a57665bc3815a2699a4074001bf1ccabf660f5a3754865160e060020a6349cc635d0281529788019490945284166024870152604486019290925260648501819052925194955016926349cc635d92608480820193929182900301818387803b158015610bf657600080fd5b505af1158015610c0a573d6000803e3d6000fd5b505060055460009081526002602081815260408084205483855260099092527f6cde3cea4b3a3fb2488b2808bae7556f4a405e50f65e1794383bc026131b13c3547f6cde3cea4b3a3fb2488b2808bae7556f4a405e50f65e1794383bc026131b13c454825160e060020a6349cc635d0281526004810195909552600160a060020a0391821660248601526044850152606484018590529051911694506349cc635d93506084808301939282900301818387803b158015610cc957600080fd5b505af1158015610cdd573d6000803e3d6000fd5b5050600554600090815260026020908152604080832054600380855260099093527fc575c31fea594a6eb97c8e9d3f9caee4c16218c6ef37e923234c0fe9014a61e7547fc575c31fea594a6eb97c8e9d3f9caee4c16218c6ef37e923234c0fe9014a61e854835160e060020a6349cc635d0281526004810195909552600160a060020a0391821660248601526044850152606484018590529151911694506349cc635d93506084808301939282900301818387803b158015610d9e57600080fd5b505af1158015610db2573d6000803e3d6000fd5b5050600554600090815260026020908152604080832054600480855260099093527f8dc18c4ccfd75f5c815b63770fa542fd953e8fef7e0e44bbdd4913470ce7e9cb547f8dc18c4ccfd75f5c815b63770fa542fd953e8fef7e0e44bbdd4913470ce7e9cc54835160e060020a6349cc635d02815280860195909552600160a060020a0391821660248601526044850152606484018590529151911694506349cc635d93506084808301939282900301818387803b158015610e7257600080fd5b505af1158015610e86573d6000803e3d6000fd5b50505050505050565b60065481565b600081815260096020526040902054600160a060020a03165b919050565b60008080808033803b8015610f00576040805160e560020a62461bcd0281526020600482015260116024820152600080516020612364833981519152604482015290519081900360640190fd5b600154341015610f5a576040805160e560020a62461bcd0281526020600482015260266024820152600080516020612344833981519152604482015260d060020a656d652066656502606482015290519081900360840190fd5b610f638a611932565b9650339550610f718661204d565b600160a060020a03871660009081526007602052604090205490955093508815801590610f9e5750888714155b15610a3f576000898152600860209081526040808320548784526009909252909120600201549093508314610a3f576000848152600960205260409020600201839055610a4d8487858a898d6120c2565b600080610ffb83611932565b600081815260086020526040902054909150151561101c5760019150611021565b600091505b50919050565b336000908152600460205260408120548190819081908190151561104a57600080fd5b6001543410156110a4576040805160e560020a62461bcd0281526020600482015260266024820152600080516020612344833981519152604482015260d060020a656d652066656502606482015290519081900360840190fd5b6110ad8961204d565b600160a060020a038a16600090815260076020526040902054909350915086158015906110da5750868814155b1561111c5750600086815260086020908152604080832054848452600990925290912060020154811461111c5760008281526009602052604090206002018190555b61112a828a838b878b6120c2565b91989197509095505050505050565b600080808033803b8015611185576040805160e560020a62461bcd0281526020600482015260116024820152600080516020612364833981519152604482015290519081900360640190fd5b600554871115611205576040805160e560020a62461bcd02815260206004820152602960248201527f73696c6c7920706c617965722c20746861742067616d6520646f65736e27742060448201527f6578697374207965740000000000000000000000000000000000000000000000606482015290519081900360840190fd5b33600081815260076020526040902054909650945084151561128b576040805160e560020a62461bcd02815260206004820152602e60248201527f6865792074686572652062756464792c20796f7520646f6e74206576656e20686044820152609260020a6d185d9948185b881858d8dbdd5b9d02606482015290519081900360840190fd5b600085815260096020818152604080842060038101548c86526002808552838720548c88529590945260018201549390910154825160e060020a6349cc635d028152600481018c9052600160a060020a038d8116602483015260448201959095526064810191909152915190985091909216926349cc635d926084808201939182900301818387803b15801561132057600080fd5b505af1158015611334573d6000803e3d6000fd5b505050506001841115610e8657600192505b838311610e8657600087815260026020908152604080832054888452600b835281842087855290925280832054815160e160020a6347b8a075028152600481018a905260248101919091529051600160a060020a0390921692638f7140ea9260448084019382900301818387803b1580156113c057600080fd5b505af11580156113d4573d6000803e3d6000fd5b5050600190940193506113469050565b60009081526009602052604090206001015490565b600080808033803b8015611445576040805160e560020a62461bcd0281526020600482015260116024820152600080516020612364833981519152604482015290519081900360640190fd5b60015434101561149f576040805160e560020a62461bcd0281526020600482015260266024820152600080516020612344833981519152604482015260d060020a656d652066656502606482015290519081900360840190fd5b6114a889611932565b95503394506114b68561204d565b600160a060020a038616600090815260076020526040902054909450925087158015906114f457506000838152600960205260409020600201548814155b80156115005750828814155b1561151e57600083815260096020526040902060020188905561152b565b8288141561152b57600097505b61088483868a89888c6120c2565b600b60209081526000928352604080842090915290825290205481565b336000908152600460205260408120548190819081908190151561157957600080fd5b6001543410156115d3576040805160e560020a62461bcd0281526020600482015260266024820152600080516020612344833981519152604482015260d060020a656d652066656502606482015290519081900360840190fd5b6115dc8961204d565b600160a060020a03808b1660009081526007602052604090205491945090925087161580159061161e575088600160a060020a031687600160a060020a031614155b1561111c5750600160a060020a038616600090815260076020908152604080832054848452600990925290912060020154811461111c57600082815260096020526040902060020181905561112a828a838b878b6120c2565b60008033803b80156116c1576040805160e560020a62461bcd0281526020600482015260116024820152600080516020612364833981519152604482015290519081900360640190fd5b6116ca85611932565b33600090815260076020908152604080832054808452600a835281842085855290925290912054919550935060ff161515600114611752576040805160e560020a62461bcd02815260206004820152601f60248201527f756d6d2e2e2e207468617473206e6f742061206e616d6520796f75206f776e00604482015290519081900360640190fd5b505060009081526009602052604090206001015550565b60055481565b336000908152600460205260408120548190819081908190151561179257600080fd5b6001543410156117ec576040805160e560020a62461bcd0281526020600482015260266024820152600080516020612344833981519152604482015260d060020a656d652066656502606482015290519081900360840190fd5b6117f58961204d565b600160a060020a038a166000908152600760205260409020549093509150869050801580159061183657506000828152600960205260409020600201548114155b80156118425750818114155b1561186057600082815260096020526040902060020181905561111c565b8181141561111c5750600061112a828a838b878b6120c2565b600155565b600260205260009081526040902054600160a060020a031681565b60046020526000908152604090205481565b6009602052600090815260409020805460018201546002830154600390930154600160a060020a0390921692909184565b60009081526009602052604090206002015490565b33600090815260046020526040812054151561190c57600080fd5b6119158261204d565b5050600160a060020a031660009081526007602052604090205490565b805160009082908280806020841180159061194d5750600084115b15156119c9576040805160e560020a62461bcd02815260206004820152602a60248201527f737472696e67206d757374206265206265747765656e203120616e642033322060448201527f6368617261637465727300000000000000000000000000000000000000000000606482015290519081900360840190fd5b8460008151811015156119d857fe5b90602001015160f860020a900460f860020a02600160f860020a031916602060f860020a0214158015611a3f57508460018503815181101515611a1757fe5b90602001015160f860020a900460f860020a02600160f860020a031916602060f860020a0214155b1515611aa6576040805160e560020a62461bcd02815260206004820152602560248201527f737472696e672063616e6e6f74207374617274206f7220656e64207769746820604482015260d860020a64737061636502606482015290519081900360840190fd5b846000815181101515611ab557fe5b90602001015160f860020a900460f860020a02600160f860020a031916603060f860020a021415611bf857846001815181101515611aef57fe5b90602001015160f860020a900460f860020a02600160f860020a031916607860f860020a0214151515611b6c576040805160e560020a62461bcd02815260206004820152601b60248201527f737472696e672063616e6e6f7420737461727420776974682030780000000000604482015290519081900360640190fd5b846001815181101515611b7b57fe5b90602001015160f860020a900460f860020a02600160f860020a031916605860f860020a0214151515611bf8576040805160e560020a62461bcd02815260206004820152601b60248201527f737472696e672063616e6e6f7420737461727420776974682030580000000000604482015290519081900360640190fd5b600091505b83821015611fe557845160fe60020a90869084908110611c1957fe5b90602001015160f860020a900460f860020a02600160f860020a031916118015611c745750845160f860020a605b0290869084908110611c5557fe5b90602001015160f860020a900460f860020a02600160f860020a031916105b15611ce1578482815181101515611c8757fe5b90602001015160f860020a900460f860020a0260f860020a900460200160f860020a028583815181101515611cb857fe5b906020010190600160f860020a031916908160001a905350821515611cdc57600192505b611fda565b8482815181101515611cef57fe5b90602001015160f860020a900460f860020a02600160f860020a031916602060f860020a021480611d8d5750845160fd60020a60030290869084908110611d3257fe5b90602001015160f860020a900460f860020a02600160f860020a031916118015611d8d5750845160f860020a607b0290869084908110611d6e57fe5b90602001015160f860020a900460f860020a02600160f860020a031916105b80611e055750845160f860020a602f0290869084908110611daa57fe5b90602001015160f860020a900460f860020a02600160f860020a031916118015611e055750845160f960020a601d0290869084908110611de657fe5b90602001015160f860020a900460f860020a02600160f860020a031916105b1515611e69576040805160e560020a62461bcd02815260206004820152602260248201527f737472696e6720636f6e7461696e7320696e76616c6964206368617261637465604482015260f060020a61727302606482015290519081900360840190fd5b8482815181101515611e7757fe5b90602001015160f860020a900460f860020a02600160f860020a031916602060f860020a021415611f56578482600101815181101515611eb357fe5b90602001015160f860020a900460f860020a02600160f860020a031916602060f860020a0214151515611f56576040805160e560020a62461bcd02815260206004820152602860248201527f737472696e672063616e6e6f7420636f6e7461696e20636f6e7365637574697660448201527f6520737061636573000000000000000000000000000000000000000000000000606482015290519081900360840190fd5b82158015611fd05750845160fc60020a60030290869084908110611f7657fe5b90602001015160f860020a900460f860020a02600160f860020a0319161080611fd05750845160f860020a60390290869084908110611fb157fe5b90602001015160f860020a900460f860020a02600160f860020a031916115b15611fda57600192505b600190910190611bfd565b60018315151461203f576040805160e560020a62461bcd02815260206004820152601d60248201527f737472696e672063616e6e6f74206265206f6e6c79206e756d62657273000000604482015290519081900360640190fd5b505050506020015192915050565b600160a060020a03811660009081526007602052604081205415156120ba575060068054600190810191829055600160a060020a038316600081815260076020908152604080832086905594825260099052929092208054600160a060020a031916909217909155610eae565b506000610eae565b6000838152600860205260408120541561214c576000878152600a6020908152604080832087845290915290205460ff16151560011461214c576040805160e560020a62461bcd02815260206004820152601e60248201527f736f7272792074686174206e616d657320616c72656164792074616b656e0000604482015290519081900360640190fd5b6000878152600960209081526040808320600101879055868352600882528083208a9055898352600a825280832087845290915290205460ff1615156121dc576000878152600a602090815260408083208784528252808320805460ff191660019081179091558a845260098352818420600301805490910190819055600b835281842090845290915290208490555b60008054604051600160a060020a0390911691303180156108fc02929091818181858888f19350505050158015612217573d6000803e3d6000fd5b50600182151514156122c0575060015b60055481116122c05760008181526002602052604080822054815160e060020a6349cc635d028152600481018b9052600160a060020a038a8116602483015260448201899052606482018a9052925192909116926349cc635d9260848084019382900301818387803b15801561229c57600080fd5b505af11580156122b0573d6000803e3d6000fd5b5050600190920191506122279050565b600085815260096020908152604091829020805460019091015483518715158152928301899052600160a060020a039182168385015260608301523460808301524260a0830152915186928916918a917fdd6176433ff5026bbce96b068584b7bbe3514227e72df9c630b749ae87e644429181900360c00190a4505050505050505600756d6d2e2e2e2e2e2020796f75206861766520746f2070617920746865206e61736f7272792068756d616e73206f6e6c79000000000000000000000000000000a165627a7a723058200028b65504a2d9276621bd87683bec08e1b4835099419c8b7631688f4d9b22f50029",
  "source": "pragma solidity ^0.4.24;\r\n\r\n\r\nimport \"./PlayerBookReceiverInterface.sol\";\r\nimport \"./NameFilter.sol\";\r\nimport \"./SafeMath.sol\";\r\n\r\n\r\n/*\r\n * -PlayerBook - v0.3.14\r\n *       \r\n *                \r\n *               \r\n *                                  _____                      _____\r\n *                                 (, /     /)       /) /)    (, /      /)          /)\r\n *                                /   _ (/_      // //       /  _   // _   __  _(/\r\n *                            ___/___(/_/(__(_/_(/_(/_   ___/__/_)_(/_(_(_/ (_(_(_\r\n *                           /   /          .-/ _____   (__ /\r\n *                            (__ /          (_/ (, /                                      /)\r\n *                                                 /  __  __ __ __  _   __ __  _  _/_ _  _(/\r\n *                            /__/ (_(__(_)/ (_/_)_(_)/ (_(_(_(__(/_(_(_\r\n *                             (__ /              .-/   Jekyll Island Inc. 2018\r\n *                                            (_/\r\n *     ______   _                                 ______                 _          \r\n *====(_____ \\=| |===============================(____  \\===============| |=============*\r\n *     _____) )| |  _____  _   _  _____   ____    ____)  )  ___    ___  | |  _\r\n *    |  ____/ | | (____ || | | || ___ | / ___)  |  __  (  / _ \\  / _ \\ | |_/ )\r\n *    | |      | | / ___ || |_| || ____|| |      | |__)  )| |_| || |_| ||  _ (\r\n *====|_|=======\\_)\\_____|=\\__  ||_____)|_|======|______/==\\___/==\\___/=|_|=\\_)=========*\r\n *                        (____/\r\n *                           \r\n *                   Inventor                       \r\n *             \r\n */\r\n\r\n\r\n\r\n\r\n\r\ncontract PlayerBook {\r\n    using NameFilter for string;\r\n    using SafeMath for uint256;\r\n    \r\n    address private admin = msg.sender;\r\n//==============================================================================\r\n//     _| _ _|_ _    _ _ _|_    _   .\r\n//    (_|(_| | (_|  _\\(/_ | |_||_)  .\r\n//=============================|================================================    \r\n    uint256 public registrationFee_ = 10 finney;            // price to register a name\r\n    mapping(uint256 => PlayerBookReceiverInterface) public games_;  // mapping of our game interfaces for sending your account info to games\r\n    mapping(address => bytes32) public gameNames_;          // lookup a games name\r\n    mapping(address => uint256) public gameIDs_;            // lokup a games ID\r\n    uint256 public gID_;        // total number of games\r\n    uint256 public pID_;        // total number of players\r\n    mapping (address => uint256) public pIDxAddr_;          // (addr => pID) returns player id by address\r\n    mapping (bytes32 => uint256) public pIDxName_;          // (name => pID) returns player id by name\r\n    mapping (uint256 => Player) public plyr_;               // (pID => data) player data\r\n    mapping (uint256 => mapping (bytes32 => bool)) public plyrNames_; // (pID => name => bool) list of names a player owns.  (used so you can change your display name amoungst any name you own)\r\n    mapping (uint256 => mapping (uint256 => bytes32)) public plyrNameList_; // (pID => nameNum => name) list of names a player owns\r\n    struct Player {\r\n        address addr;\r\n        bytes32 name;\r\n        uint256 laff;\r\n        uint256 names;\r\n    }\r\n//==============================================================================\r\n//     _ _  _  __|_ _    __|_ _  _  .\r\n//    (_(_)| |_\\ | | |_|(_ | (_)|   .  (initial data setup upon contract deploy)\r\n//==============================================================================    \r\n    constructor()\r\n        public\r\n    {\r\n        // premine the dev names (sorry not sorry)\r\n            // No keys are purchased with this method, it's simply locking our addresses,\r\n            // PID's and names for referral codes.\r\n        plyr_[1].addr = 0x8e0d985f3Ec1857BEc39B76aAabDEa6B31B67d53;\r\n        plyr_[1].name = \"justo\";\r\n        plyr_[1].names = 1;\r\n        pIDxAddr_[0x8e0d985f3Ec1857BEc39B76aAabDEa6B31B67d53] = 1;\r\n        pIDxName_[\"justo\"] = 1;\r\n        plyrNames_[1][\"justo\"] = true;\r\n        plyrNameList_[1][1] = \"justo\";\r\n        \r\n        plyr_[2].addr = 0x8b4DA1827932D71759687f925D17F81Fc94e3A9D;\r\n        plyr_[2].name = \"mantso\";\r\n        plyr_[2].names = 1;\r\n        pIDxAddr_[0x8b4DA1827932D71759687f925D17F81Fc94e3A9D] = 2;\r\n        pIDxName_[\"mantso\"] = 2;\r\n        plyrNames_[2][\"mantso\"] = true;\r\n        plyrNameList_[2][1] = \"mantso\";\r\n        \r\n        plyr_[3].addr = 0x7ac74Fcc1a71b106F12c55ee8F802C9F672Ce40C;\r\n        plyr_[3].name = \"sumpunk\";\r\n        plyr_[3].names = 1;\r\n        pIDxAddr_[0x7ac74Fcc1a71b106F12c55ee8F802C9F672Ce40C] = 3;\r\n        pIDxName_[\"sumpunk\"] = 3;\r\n        plyrNames_[3][\"sumpunk\"] = true;\r\n        plyrNameList_[3][1] = \"sumpunk\";\r\n        \r\n        plyr_[4].addr = 0x18E90Fc6F70344f53EBd4f6070bf6Aa23e2D748C;\r\n        plyr_[4].name = \"inventor\";\r\n        plyr_[4].names = 1;\r\n        pIDxAddr_[0x18E90Fc6F70344f53EBd4f6070bf6Aa23e2D748C] = 4;\r\n        pIDxName_[\"inventor\"] = 4;\r\n        plyrNames_[4][\"inventor\"] = true;\r\n        plyrNameList_[4][1] = \"inventor\";\r\n        \r\n        pID_ = 4;\r\n    }\r\n//==============================================================================\r\n//     _ _  _  _|. |`. _  _ _  .\r\n//    | | |(_)(_||~|~|(/_| _\\  .  (these are safety checks)\r\n//==============================================================================    \r\n    /**\r\n     * @dev prevents contracts from interacting with fomo3d \r\n     */\r\n    modifier isHuman() {\r\n        address _addr = msg.sender;\r\n        uint256 _codeLength;\r\n        \r\n        assembly {_codeLength := extcodesize(_addr)}\r\n        require(_codeLength == 0, \"sorry humans only\");\r\n        _;\r\n    }\r\n   \r\n    \r\n    modifier isRegisteredGame()\r\n    {\r\n        require(gameIDs_[msg.sender] != 0);\r\n        _;\r\n    }\r\n//==============================================================================\r\n//     _    _  _ _|_ _  .\r\n//    (/_\\/(/_| | | _\\  .\r\n//==============================================================================    \r\n    // fired whenever a player registers a name\r\n    event onNewName\r\n    (\r\n        uint256 indexed playerID,\r\n        address indexed playerAddress,\r\n        bytes32 indexed playerName,\r\n        bool isNewPlayer,\r\n        uint256 affiliateID,\r\n        address affiliateAddress,\r\n        bytes32 affiliateName,\r\n        uint256 amountPaid,\r\n        uint256 timeStamp\r\n    );\r\n//==============================================================================\r\n//     _  _ _|__|_ _  _ _  .\r\n//    (_|(/_ |  | (/_| _\\  . (for UI & viewing things on etherscan)\r\n//=====_|=======================================================================\r\n    function checkIfNameValid(string _nameStr)\r\n        public\r\n        view\r\n        returns(bool)\r\n    {\r\n        bytes32 _name = _nameStr.nameFilter();\r\n        if (pIDxName_[_name] == 0)\r\n            return (true);\r\n        else \r\n            return (false);\r\n    }\r\n//==============================================================================\r\n//     _    |_ |. _   |`    _  __|_. _  _  _  .\r\n//    |_)|_||_)||(_  ~|~|_|| |(_ | |(_)| |_\\  .  (use these to interact with contract)\r\n//====|=========================================================================    \r\n    /**\r\n     * @dev registers a name.  UI will always display the last name you registered.\r\n     * but you will still own all previously registered names to use as affiliate \r\n     * links.\r\n     * - must pay a registration fee.\r\n     * - name must be unique\r\n     * - names will be converted to lowercase\r\n     * - name cannot start or end with a space \r\n     * - cannot have more than 1 space in a row\r\n     * - cannot be only numbers\r\n     * - cannot start with 0x \r\n     * - name must be at least 1 char\r\n     * - max length of 32 characters long\r\n     * - allowed characters: a-z, 0-9, and space\r\n     * -functionhash- 0x921dec21 (using ID for affiliate)\r\n     * -functionhash- 0x3ddd4698 (using address for affiliate)\r\n     * -functionhash- 0x685ffd83 (using name for affiliate)\r\n     * @param _nameString players desired name\r\n     * @param _affCode affiliate ID, address, or name of who refered you\r\n     * @param _all set to true if you want this to push your info to all games \r\n     * (this might cost a lot of gas)\r\n     */\r\n    function registerNameXID(string _nameString, uint256 _affCode, bool _all)\r\n        isHuman()\r\n        public\r\n        payable \r\n    {\r\n        // make sure name fees paid\r\n        require (msg.value >= registrationFee_, \"umm.....  you have to pay the name fee\");\r\n        \r\n        // filter name + condition checks\r\n        bytes32 _name = NameFilter.nameFilter(_nameString);\r\n        \r\n        // set up address \r\n        address _addr = msg.sender;\r\n        \r\n        // set up our tx event data and determine if player is new or not\r\n        bool _isNewPlayer = determinePID(_addr);\r\n        \r\n        // fetch player id\r\n        uint256 _pID = pIDxAddr_[_addr];\r\n        \r\n        // manage affiliate residuals\r\n        // if no affiliate code was given, no new affiliate code was given, or the \r\n        // player tried to use their own pID as an affiliate code, lolz\r\n        if (_affCode != 0 && _affCode != plyr_[_pID].laff && _affCode != _pID) \r\n        {\r\n            // update last affiliate \r\n            plyr_[_pID].laff = _affCode;\r\n        } else if (_affCode == _pID) {\r\n            _affCode = 0;\r\n        }\r\n        \r\n        // register name \r\n        registerNameCore(_pID, _addr, _affCode, _name, _isNewPlayer, _all);\r\n    }\r\n    \r\n    function registerNameXaddr(string _nameString, address _affCode, bool _all)\r\n        isHuman()\r\n        public\r\n        payable \r\n    {\r\n        // make sure name fees paid\r\n        require (msg.value >= registrationFee_, \"umm.....  you have to pay the name fee\");\r\n        \r\n        // filter name + condition checks\r\n        bytes32 _name = NameFilter.nameFilter(_nameString);\r\n        \r\n        // set up address \r\n        address _addr = msg.sender;\r\n        \r\n        // set up our tx event data and determine if player is new or not\r\n        bool _isNewPlayer = determinePID(_addr);\r\n        \r\n        // fetch player id\r\n        uint256 _pID = pIDxAddr_[_addr];\r\n        \r\n        // manage affiliate residuals\r\n        // if no affiliate code was given or player tried to use their own, lolz\r\n        uint256 _affID;\r\n        if (_affCode != address(0) && _affCode != _addr)\r\n        {\r\n            // get affiliate ID from aff Code \r\n            _affID = pIDxAddr_[_affCode];\r\n            \r\n            // if affID is not the same as previously stored \r\n            if (_affID != plyr_[_pID].laff)\r\n            {\r\n                // update last affiliate\r\n                plyr_[_pID].laff = _affID;\r\n            }\r\n        }\r\n        \r\n        // register name \r\n        registerNameCore(_pID, _addr, _affID, _name, _isNewPlayer, _all);\r\n    }\r\n    \r\n    function registerNameXname(string _nameString, bytes32 _affCode, bool _all)\r\n        isHuman()\r\n        public\r\n        payable \r\n    {\r\n        // make sure name fees paid\r\n        require (msg.value >= registrationFee_, \"umm.....  you have to pay the name fee\");\r\n        \r\n        // filter name + condition checks\r\n        bytes32 _name = NameFilter.nameFilter(_nameString);\r\n        \r\n        // set up address \r\n        address _addr = msg.sender;\r\n        \r\n        // set up our tx event data and determine if player is new or not\r\n        bool _isNewPlayer = determinePID(_addr);\r\n        \r\n        // fetch player id\r\n        uint256 _pID = pIDxAddr_[_addr];\r\n        \r\n        // manage affiliate residuals\r\n        // if no affiliate code was given or player tried to use their own, lolz\r\n        uint256 _affID;\r\n        if (_affCode != \"\" && _affCode != _name)\r\n        {\r\n            // get affiliate ID from aff Code \r\n            _affID = pIDxName_[_affCode];\r\n            \r\n            // if affID is not the same as previously stored \r\n            if (_affID != plyr_[_pID].laff)\r\n            {\r\n                // update last affiliate\r\n                plyr_[_pID].laff = _affID;\r\n            }\r\n        }\r\n        \r\n        // register name \r\n        registerNameCore(_pID, _addr, _affID, _name, _isNewPlayer, _all);\r\n    }\r\n    \r\n    /**\r\n     * @dev players, if you registered a profile, before a game was released, or\r\n     * set the all bool to false when you registered, use this function to push\r\n     * your profile to a single game.  also, if you've  updated your name, you\r\n     * can use this to push your name to games of your choosing.\r\n     * -functionhash- 0x81c5b206\r\n     * @param _gameID game id \r\n     */\r\n    function addMeToGame(uint256 _gameID)\r\n        isHuman()\r\n        public\r\n    {\r\n        require(_gameID <= gID_, \"silly player, that game doesn't exist yet\");\r\n        address _addr = msg.sender;\r\n        uint256 _pID = pIDxAddr_[_addr];\r\n        require(_pID != 0, \"hey there buddy, you dont even have an account\");\r\n        uint256 _totalNames = plyr_[_pID].names;\r\n        \r\n        // add players profile and most recent name\r\n        games_[_gameID].receivePlayerInfo(_pID, _addr, plyr_[_pID].name, plyr_[_pID].laff);\r\n        \r\n        // add list of all names\r\n        if (_totalNames > 1)\r\n            for (uint256 ii = 1; ii <= _totalNames; ii++)\r\n                games_[_gameID].receivePlayerNameList(_pID, plyrNameList_[_pID][ii]);\r\n    }\r\n    \r\n    /**\r\n     * @dev players, use this to push your player profile to all registered games.\r\n     * -functionhash- 0x0c6940ea\r\n     */\r\n    function addMeToAllGames()\r\n        isHuman()\r\n        public\r\n    {\r\n        address _addr = msg.sender;\r\n        uint256 _pID = pIDxAddr_[_addr];\r\n        require(_pID != 0, \"hey there buddy, you dont even have an account\");\r\n        uint256 _laff = plyr_[_pID].laff;\r\n        uint256 _totalNames = plyr_[_pID].names;\r\n        bytes32 _name = plyr_[_pID].name;\r\n        \r\n        for (uint256 i = 1; i <= gID_; i++)\r\n        {\r\n            games_[i].receivePlayerInfo(_pID, _addr, _name, _laff);\r\n            if (_totalNames > 1)\r\n                for (uint256 ii = 1; ii <= _totalNames; ii++)\r\n                    games_[i].receivePlayerNameList(_pID, plyrNameList_[_pID][ii]);\r\n        }\r\n                \r\n    }\r\n    \r\n    /**\r\n     * @dev players use this to change back to one of your old names.  tip, you'll\r\n     * still need to push that info to existing games.\r\n     * -functionhash- 0xb9291296\r\n     * @param _nameString the name you want to use \r\n     */\r\n    function useMyOldName(string _nameString)\r\n        isHuman()\r\n        public \r\n    {\r\n        // filter name, and get pID\r\n        bytes32 _name = _nameString.nameFilter();\r\n        uint256 _pID = pIDxAddr_[msg.sender];\r\n        \r\n        // make sure they own the name \r\n        require(plyrNames_[_pID][_name] == true, \"umm... thats not a name you own\");\r\n        \r\n        // update their current name \r\n        plyr_[_pID].name = _name;\r\n    }\r\n    \r\n//==============================================================================\r\n//     _ _  _ _   | _  _ . _  .\r\n//    (_(_)| (/_  |(_)(_||(_  . \r\n//=====================_|=======================================================    \r\n    function registerNameCore(uint256 _pID, address _addr, uint256 _affID, bytes32 _name, bool _isNewPlayer, bool _all)\r\n        private\r\n    {\r\n        // if names already has been used, require that current msg sender owns the name\r\n        if (pIDxName_[_name] != 0)\r\n            require(plyrNames_[_pID][_name] == true, \"sorry that names already taken\");\r\n        \r\n        // add name to player profile, registry, and name book\r\n        plyr_[_pID].name = _name;\r\n        pIDxName_[_name] = _pID;\r\n        if (plyrNames_[_pID][_name] == false)\r\n        {\r\n            plyrNames_[_pID][_name] = true;\r\n            plyr_[_pID].names++;\r\n            plyrNameList_[_pID][plyr_[_pID].names] = _name;\r\n        }\r\n        \r\n        // registration fee goes directly to community rewards\r\n        admin.transfer(address(this).balance);\r\n        \r\n        // push player info to games\r\n        if (_all == true)\r\n            for (uint256 i = 1; i <= gID_; i++)\r\n                games_[i].receivePlayerInfo(_pID, _addr, _name, _affID);\r\n        \r\n        // fire event\r\n        emit onNewName(_pID, _addr, _name, _isNewPlayer, _affID, plyr_[_affID].addr, plyr_[_affID].name, msg.value, now);\r\n    }\r\n//==============================================================================\r\n//    _|_ _  _ | _  .\r\n//     | (_)(_)|_\\  .\r\n//==============================================================================    \r\n    function determinePID(address _addr)\r\n        private\r\n        returns (bool)\r\n    {\r\n        if (pIDxAddr_[_addr] == 0)\r\n        {\r\n            pID_++;\r\n            pIDxAddr_[_addr] = pID_;\r\n            plyr_[pID_].addr = _addr;\r\n            \r\n            // set the new player bool to true\r\n            return (true);\r\n        } else {\r\n            return (false);\r\n        }\r\n    }\r\n//==============================================================================\r\n//   _   _|_ _  _ _  _ |   _ _ || _  .\r\n//  (/_>< | (/_| | |(_||  (_(_|||_\\  .\r\n//==============================================================================\r\n    function getPlayerID(address _addr)\r\n        isRegisteredGame()\r\n        external\r\n        returns (uint256)\r\n    {\r\n        determinePID(_addr);\r\n        return (pIDxAddr_[_addr]);\r\n    }\r\n    function getPlayerName(uint256 _pID)\r\n        external\r\n        view\r\n        returns (bytes32)\r\n    {\r\n        return (plyr_[_pID].name);\r\n    }\r\n    function getPlayerLAff(uint256 _pID)\r\n        external\r\n        view\r\n        returns (uint256)\r\n    {\r\n        return (plyr_[_pID].laff);\r\n    }\r\n    function getPlayerAddr(uint256 _pID)\r\n        external\r\n        view\r\n        returns (address)\r\n    {\r\n        return (plyr_[_pID].addr);\r\n    }\r\n    function getNameFee()\r\n        external\r\n        view\r\n        returns (uint256)\r\n    {\r\n        return(registrationFee_);\r\n    }\r\n    function registerNameXIDFromDapp(address _addr, bytes32 _name, uint256 _affCode, bool _all)\r\n        isRegisteredGame()\r\n        external\r\n        payable\r\n        returns(bool, uint256)\r\n    {\r\n        // make sure name fees paid\r\n        require (msg.value >= registrationFee_, \"umm.....  you have to pay the name fee\");\r\n        \r\n        // set up our tx event data and determine if player is new or not\r\n        bool _isNewPlayer = determinePID(_addr);\r\n        \r\n        // fetch player id\r\n        uint256 _pID = pIDxAddr_[_addr];\r\n        \r\n        // manage affiliate residuals\r\n        // if no affiliate code was given, no new affiliate code was given, or the \r\n        // player tried to use their own pID as an affiliate code, lolz\r\n        uint256 _affID = _affCode;\r\n        if (_affID != 0 && _affID != plyr_[_pID].laff && _affID != _pID) \r\n        {\r\n            // update last affiliate \r\n            plyr_[_pID].laff = _affID;\r\n        } else if (_affID == _pID) {\r\n            _affID = 0;\r\n        }\r\n        \r\n        // register name \r\n        registerNameCore(_pID, _addr, _affID, _name, _isNewPlayer, _all);\r\n        \r\n        return(_isNewPlayer, _affID);\r\n    }\r\n    function registerNameXaddrFromDapp(address _addr, bytes32 _name, address _affCode, bool _all)\r\n        isRegisteredGame()\r\n        external\r\n        payable\r\n        returns(bool, uint256)\r\n    {\r\n        // make sure name fees paid\r\n        require (msg.value >= registrationFee_, \"umm.....  you have to pay the name fee\");\r\n        \r\n        // set up our tx event data and determine if player is new or not\r\n        bool _isNewPlayer = determinePID(_addr);\r\n        \r\n        // fetch player id\r\n        uint256 _pID = pIDxAddr_[_addr];\r\n        \r\n        // manage affiliate residuals\r\n        // if no affiliate code was given or player tried to use their own, lolz\r\n        uint256 _affID;\r\n        if (_affCode != address(0) && _affCode != _addr)\r\n        {\r\n            // get affiliate ID from aff Code \r\n            _affID = pIDxAddr_[_affCode];\r\n            \r\n            // if affID is not the same as previously stored \r\n            if (_affID != plyr_[_pID].laff)\r\n            {\r\n                // update last affiliate\r\n                plyr_[_pID].laff = _affID;\r\n            }\r\n        }\r\n        \r\n        // register name \r\n        registerNameCore(_pID, _addr, _affID, _name, _isNewPlayer, _all);\r\n        \r\n        return(_isNewPlayer, _affID);\r\n    }\r\n    function registerNameXnameFromDapp(address _addr, bytes32 _name, bytes32 _affCode, bool _all)\r\n        isRegisteredGame()\r\n        external\r\n        payable\r\n        returns(bool, uint256)\r\n    {\r\n        // make sure name fees paid\r\n        require (msg.value >= registrationFee_, \"umm.....  you have to pay the name fee\");\r\n        \r\n        // set up our tx event data and determine if player is new or not\r\n        bool _isNewPlayer = determinePID(_addr);\r\n        \r\n        // fetch player id\r\n        uint256 _pID = pIDxAddr_[_addr];\r\n        \r\n        // manage affiliate residuals\r\n        // if no affiliate code was given or player tried to use their own, lolz\r\n        uint256 _affID;\r\n        if (_affCode != \"\" && _affCode != _name)\r\n        {\r\n            // get affiliate ID from aff Code \r\n            _affID = pIDxName_[_affCode];\r\n            \r\n            // if affID is not the same as previously stored \r\n            if (_affID != plyr_[_pID].laff)\r\n            {\r\n                // update last affiliate\r\n                plyr_[_pID].laff = _affID;\r\n            }\r\n        }\r\n        \r\n        // register name \r\n        registerNameCore(_pID, _addr, _affID, _name, _isNewPlayer, _all);\r\n        \r\n        return(_isNewPlayer, _affID);\r\n    }\r\n    \r\n//==============================================================================\r\n//   _ _ _|_    _   .\r\n//  _\\(/_ | |_||_)  .\r\n//=============|================================================================\r\n    function addGame(address _gameAddress, string _gameNameStr)\r\n        public\r\n    {\r\n        require(gameIDs_[_gameAddress] == 0, \"derp, that games already been registered\");\r\n            gID_++;\r\n            bytes32 _name = _gameNameStr.nameFilter();\r\n            gameIDs_[_gameAddress] = gID_;\r\n            gameNames_[_gameAddress] = _name;\r\n            games_[gID_] = PlayerBookReceiverInterface(_gameAddress);\r\n        \r\n            games_[gID_].receivePlayerInfo(1, plyr_[1].addr, plyr_[1].name, 0);\r\n            games_[gID_].receivePlayerInfo(2, plyr_[2].addr, plyr_[2].name, 0);\r\n            games_[gID_].receivePlayerInfo(3, plyr_[3].addr, plyr_[3].name, 0);\r\n            games_[gID_].receivePlayerInfo(4, plyr_[4].addr, plyr_[4].name, 0);\r\n    }\r\n    \r\n    function setRegistrationFee(uint256 _fee)\r\n        public\r\n    {\r\n      registrationFee_ = _fee;\r\n    }\r\n        \r\n} \r\n",
  "sourcePath": "/Users/zhengwei/projects/solidity/fomo-GOSL/contracts/PlayerBook.sol",
  "compiler": {
    "name": "solc",
    "version": "0.4.24+commit.e67f0147.Emscripten.clang"
  },
  "schemaVersion": "2.0.1",
  "updatedAt": "2018-08-23T12:36:17.745Z"
}